:020000040800F2
:10000000004001209D0800087108000873080008DE
:10001000750800087708000879080008000000004B
:100020000000000000000000000000007B08000845
:100030007D080008000000007F0800088108000813
:10004000ED080008ED080008ED080008ED080008BC
:10005000ED080008ED080008ED080008ED080008AC
:10006000ED080008ED080008ED080008ED0800089C
:10007000ED080008ED080008ED080008ED0800088C
:10008000ED080008ED080008ED080008ED0800087C
:10009000ED080008ED080008ED080008ED0800086C
:1000A000ED080008ED080008ED080008ED0800085C
:1000B000ED080008ED080008ED080008ED0800084C
:1000C000ED080008ED080008ED080008ED0800083C
:1000D000ED080008ED080008ED080008ED0800082C
:1000E000ED080008ED080008ED080008ED0800081C
:1000F000ED080008ED080008ED080008ED0800080C
:10010000ED080008ED080008ED080008ED080008FB
:1001100089080008ED080008ED080008ED0800084F
:10012000ED080008ED080008ED080008ED080008DB
:10013000ED0800080000000000000000ED080008C5
:10014000ED080008ED080008ED080008ED080008BB
:10015000ED080008ED080008ED080008ED080008AB
:10016000ED080008ED080008ED080008ED0800089B
:10017000ED080008ED080008000000000000000085
:04018000ED0800087E
:1001840010B5054C237833B9044B13B10448AFF3CD
:1001940000800123237010BD100000200000000027
:1001A400C41C000808B5034B1BB103490348AFF353
:1001B400008008BD0000000014000020C41C0008DA
:1001C40053B94AB9002908BF00281CBF4FF0FF31BA
:1001D4004FF0FF3000F068B9ADF1080C6DE904CEC2
:1001E40000F006F8DDF804E0DDE9022304B070470E
:1001F4002DE9F047089D0C46002B4ED194468C45C2
:100204008646B2FA82F262D94AB1C2F12003914021
:1002140020FA03F30CFA02FC194300FA02FE4FEA37
:100224001C47B1FBF7F407FB14111FFA8CF64FEAD5
:100234001E4343EA014304FB06F199420AD91CEB2D
:10024400030304F1FF3080F01081994240F20D81E4
:10025400023C6344591AB1FBF7F007FB101100FB91
:1002640006F61FFA8EF343EA01439E420AD91CEBB9
:10027400030300F1FF3180F0FA809E4240F2F780E0
:100284006344023800219B1B40EA04401DB1D34063
:100294000022C5E90032BDE8F0878B4205D90DB1D3
:1002A400C5E9000100210846F5E7B3FA83F1002906
:1002B40046D1A34202D39042C0F0EE80861A64EB8A
:1002C40003030120002DE6D0C5E90063E3E7002A1B
:1002D40040F08F80A1EB0C0401214FEA1C481FFA67
:1002E4008CF7B4FBF8F608FB164407FB06F04FEA5C
:1002F4001E4343EA0443984208D91CEB030306F166
:10030400FF3402D2984200F2CB8026461C1AB4FB7A
:10031400F8F008FB104400FB07F71FFA8EF343EADA
:1003240004439F4208D91CEB030300F1FF3402D2BB
:100334009F4200F2AE802046DB1B40EA0640A5E760
:10034400C1F120078B4022FA07FC4CEA030C24FA83
:1003540007F64FEA1C49B6FBF9F81FFA8CFE09FBB5
:10036400186620FA07F38C4000FA01FA08FB0EF035
:100374001C43230C43EA0643984202FA01F20AD9C9
:100384001CEB030308F1FF3680F0818098427ED98C
:10039400A8F1020863441E1AB6FBF9F309FB1366BD
:1003A40003FB0EFEA4B244EA0644A64508D91CEB9E
:1003B400040403F1FF3066D2A64564D9023B6444C9
:1003C40043EA0840A0FB0283A4EB0E049C42C64609
:1003D4001E4650D34DD055B1BAEB0E0364EB060460
:1003E40004FA07F7CB401F43CC40C5E90074002151
:1003F40051E70CFA02FCC2F12003D9404FEA1C4831
:1004040020FA03F300FA02FEB1FBF8F008FB101126
:1004140094401C431FFA8CF7230C43EA014300FB6E
:1004240007F1994208D91CEB030300F1FF362CD2E3
:1004340099422AD9023863445B1AB3FBF8F108FBEA
:100444001133A4B244EA034401FB07F3A34208D9DD
:100454001CEB040401F1FF3613D2A34211D9023973
:100464006444E41A41EA00413BE70446F2E60846E4
:1004740008E7C245AFD2B8EB020E63EB0C060138B5
:10048400A9E73146EDE703469AE73046D4E7B0469C
:1004940081E7634402384FE706462346084611E7DE
:1004A400023E634432E700BF704700BFF0B589B035
:1004B4000024039404940594069407940094254B13
:1004C4001A6B42F001021A631A6B02F001020092E5
:1004D400009A01941A6B42F010021A631A6B02F02C
:1004E40010020192019A02941A6B42F008021A63F4
:1004F4001B6B03F008030293029B174F0122802118
:10050400384600F01FFC154E01224FF4906130462E
:1005140000F018FC802303930125049505940694A8
:1005240003A9384600F00AFB4FF490630393049543
:100534000594069403A9304600F000FB4FF44053A1
:1005440003930494059503A9054800F0F7FA09B04C
:10055400F0BD00BF0038024000000240001002401D
:10056400000C024000B583B04FF0000E4FF6FF734D
:100574000CE05B08013A3AB113F0010FF9D04AF2EA
:10058400010C8CEA5303F5E70EF1010E8E4504D2FB
:1005940010F80E2053400822EDE78DF800301B0AB6
:1005A4008DF80130BDF80030ADF8043000209DF81E
:1005B400043063F307009DF8053063F30F2003B0A4
:1005C4005DF804FB2DE9F04782B02F4C0227277019
:1005D4004FF0030884F801800023ADF80430DFF8FD
:1005E400AC9032233A4601A9484601F072F89DF8CE
:1005F40004309DF8056046EA032632233A4601A9F1
:10060400484601F066F89DF804309DF8055045EA27
:1006140003250FFA85FA32233A4601A9484601F028
:1006240058F84FEA4A0A84F802A033460DE0184A03
:1006340032F8130008F1010213494FEA102C01F8B3
:1006440008C0885408F102080133AA199A42EEDC62
:100654000D4D41462846FFF785FFADF8000008F12F
:1006640001039DF8002005F8082008F102029DF816
:100674000110E954322392B22978044800F0C3FFF0
:1006840002B0BDE8F08700BF300100203004002034
:100694003002002008B50268134B9A4200D008BD0E
:1006A400124B1978022904D00122114801F063FA8F
:1006B400F5E7322301220E4801F00BF80B4B1B78AF
:1006C400032B07D0102B0CD001220A49084801F053
:1006D40052FAE4E7322307220749054800F093FF62
:1006E400F2E7FFF76FFFEFE7004C00402C0000201B
:1006F40030040020300000203001002072B6FEE7F4
:1007040008B50B480B4B03604FF4165343600023AA
:1007140083604FF40052C26003610C224261836122
:10072400C36100F040FF00B908BDFFF7E7FF00BF59
:1007340030040020004C004000B593B0302200216A
:1007440006A801F02BFA0023019302930393049368
:100754000593022306930123099310230A9306A801
:1007640000F0F6FA68B90F23019300210291039176
:100774000491059101A800F01BFD20B913B05DF8A8
:1007840004FBFFF7BBFFFFF7B9FF000008B500F05B
:10079400D3F8FFF7D1FFFFF789FEFFF7B1FF01227E
:1007A400024B1978024801F0E6F9FEE72C0000201C
:1007B4003004002082B0002100910B4B5A6C42F4AB
:1007C40080425A645A6C02F480420092009A019169
:1007D4001A6C42F080521A641B6C03F0805301932C
:1007E400019B02B0704700BF0038024010B588B0CA
:1007F4000023039304930593069307930268194B0C
:100804009A4201D008B010BD0024019403F5F633D8
:100814001A6C42F400221A641A6C02F40022019247
:10082400019A02941A6B42F001021A631B6B03F0E3
:1008340001030293029B03230393022204920122E5
:10084400059206930823079303A9074800F076F955
:1008540022462146342000F0E1F8342000F0EEF87E
:10086400D0E700BF004C004000000240FEE7FEE776
:10087400FEE7FEE7FEE770477047704708B500F0F3
:1008840075F808BD08B5024801F018F808BD00BFA6
:100894003004002070470000DFF834D0FFF7FAFF7F
:1008A4000C480D490D4A002302E0D458C4500433C7
:1008B400C4188C42F9D30A4A0A4C002301E013609D
:1008C4000432A242FBD301F071F9FFF75FFF7047D6
:1008D400004001200000002010000020081D000836
:1008E4001000002014060020FEE7000010B50446A6
:1008F4000E4B1A784FF47A73B3FBF2F30C4A106878
:10090400B0FBF3F000F0A8F868B90F2C01D901206E
:100914000AE0002221464FF0FF3000F07FF8054B3B
:100924001C60002000E0012010BD00BF0400002076
:10093400000000200800002008B50B4B1A6842F4A0
:1009440000721A601A6842F480621A601A6842F4EB
:1009540080721A60032000F04FF80F20FFF7C6FFE3
:10096400FFF728FF002008BD003C0240034A11683D
:10097400034B1B780B441360704700BF78040020BE
:1009840004000020014B1868704700BF7804002061
:10099400002808DB0901C9B200F1604000F561409C
:1009A40080F80013704700F00F000901C9B2014B31
:1009B4001954704714ED00E000B500F00700C0F1D1
:1009C400070CBCF1040F28BF4FF0040C031D062BC9
:1009D4000FD9C31E4FF0FF3E0EFA0CF021EA0001BE
:1009E40099400EFA03FE22EA0E0241EA02005DF883
:1009F40004FB0023EEE70000074AD36823F4E06316
:100A04001B041B0C000200F4E060034343F0BF63CB
:100A140043F40033D360704700ED00E010B50446A2
:100A2400054BD868C0F30220FFF7C6FF01462046F5
:100A3400FFF7AEFF10BD00BF00ED00E0002807DBAC
:100A440000F01F02400901239340024A42F820307B
:100A5400704700BF00E100E00138B0F1807F0BD2A5
:100A64004FF0E0235861054AF02182F8231000205A
:100A7400986107221A6170470120704700ED00E079
:100A840070B50446866DFFF77DFF94F83530DBB210
:100A9400022B06D080236365002384F834300120C0
:100AA40070BD05462268136823F01603136022689C
:100AB400536923F080035361236CE3B12268136804
:100AC40023F0080313602268136823F00103136002
:100AD40023681B6813F0010F11D0FFF753FF431B6A
:100AE400052BF5D920236365032084F83500002302
:100AF40084F83430D4E7A36C002BDFD1E3E7E26D54
:100B04003F239340B360012384F83530002084F8F8
:100B14003400C5E790F83530DBB2022B03D08023D4
:100B2400436501207047052380F835300268136857
:100B340023F00103136000207047000070B582B0F9
:100B4400002365E085685E000324B44025EA0405BB
:100B5400CC68B4402C438460456825EA0C054C6895
:100B6400C4F300149C402C43446063E0DD08083562
:100B740050F8254003F0070C4FEA8C0C4FF00F0E91
:100B84000EFA0CFE24EA0E0E0C6904FA0CF444EA84
:100B94000E0440F8254064E0082400E0002404FA30
:100BA4000EF42C430CF1020C624D45F82C40624CBF
:100BB400A568D44325EA0206D1F804C01CF4801FBA
:100BC40001D042EA05065C4DAE60ED6804EA050614
:100BD400D1F804C01CF4001F01D042EA0506564DAA
:100BE400EE606D6804EA0506D1F804C01CF4003F09
:100BF40001D042EA0506504D6E602D682C404E68C7
:100C040016F4803F01D042EA05044B4A14600133D4
:100C14000A6832FA03F400F08A804FF0010C0CFAEF
:100C240003FC1CEA0202F2D04C6804F00304013C09
:100C3400012C87D94C6804F00304032C0CD0C4683D
:100C44005D004FF0030C0CFA05FC24EA0C0C8C68D4
:100C5400AC4044EA0C04C4604C6804F00304022C65
:100C640084D004684FEA430E4FF0030C0CFA0EFCD8
:100C740024EA0C0C4C6804F0030404FA0EF444EA6D
:100C84000C0404604C6814F4403FC0D00024019468
:100C94002A4C656C45F480456564646C04F48044B6
:100CA4000194019C4FEA930C0CF10205214C54F879
:100CB400255003F0030E4FEA8E0E0F2404FA0EF4AF
:100CC40025EA04051E4CA0423FF468AF04F5806495
:100CD400A0421ED004F58064A0421CD004F58064B8
:100CE400A0421AD004F58064A04218D004F58064B0
:100CF400A04216D004F58064A04214D004F58064A8
:100D0400A04212D004F58064A0423FF445AF092408
:100D140045E7012443E7022441E703243FE7042491
:100D24003DE705243BE7062439E7072437E702B00B
:100D340070BD00BF00380140003C01400038024053
:100D4400000002400AB18161704709048161704763
:100D5400002800F0C08170B582B00446036813F027
:100D6400010F2ED0A24B9B6803F00C03042B1FD061
:100D74009F4B9B6803F00C03082B14D022799C4BE7
:100D84009A706368002B40D0FFF7FCFD0546984B32
:100D94001B6813F4003F14D1FFF7F4FD401B6428D3
:100DA400F5D903209EE1924B5B6813F4800FE5D0E4
:100DB4008F4B1B6813F4003F03D06368002B00F0D3
:100DC4008C81236813F0020F49D0894B9B6813F080
:100DD4000C0F2ED0864B9B6803F00C03082B23D0FA
:100DE400E368002B62D0834B01221A60FFF7CAFD2F
:100DF40005467F4B1B6813F0020F49D1FFF7C2FD74
:100E0400401B0228F5D903206CE1FFF7BBFD054622
:100E1400774B1B6813F4003FD3D0FFF7B3FD401B9F
:100E24006428F5D903205DE1714B5B6813F4800FEE
:100E3400D6D16F4B1B6813F0020F03D0E368012B6C
:100E440040F04D816A48036823F0F8032169F822D1
:100E540092FAA2F2B2FA82F291400B430360236841
:100E640013F0080F47D0636993B3624B0122C3F8B0
:100E7400802EFFF787FD05465D4B5B6F13F0020F75
:100E840039D1FFF77FFD401B0228F5D9032029E162
:100E94005748036823F0F8032169F82292FAA2F272
:100EA400B2FA82F291400B430360D8E7514B00221F
:100EB4001A60FFF767FD05464D4B1B6813F0020FE0
:100EC400CDD0FFF75FFD401B0228F5D9032009E1CF
:100ED400484B0022C3F8802EFFF754FD0546444BCF
:100EE4005B6F13F0020F06D0FFF74CFD401B022886
:100EF400F5D90320F6E0236813F0040F59D03C4BD6
:100F04001B6C13F0805F2CD100230193384B1A6CB7
:100F140042F080521A641B6C03F080530193019BCE
:100F24000125354B1A6842F480721A601B6813F469
:100F3400807F18D0227A2E4B83F87020A36833B3B5
:100F4400FFF720FD06462A4B1B6F13F0020F2FD12B
:100F5400FFF718FD801B41F288339842F3D9032030
:100F6400C0E00025DDE7244A136843F4807313606E
:100F7400FFF708FD0646204B1B6813F4807FD9D188
:100F8400FFF700FD801B0228F5D90320AAE0FFF734
:100F9400F9FC0646164B1B6F13F0020F08D0FFF73F
:100FA400F1FC801B41F288339842F3D9032099E085
:100FB40025BBA369002B00F094800D4A926802F0CF
:100FC4000C02082A62D0022B1ED00A4B00221A6699
:100FD400FFF7D8FC0446064B1B6813F0007F53D080
:100FE400FFF7D0FC001B6428F5D903207AE000BF8A
:100FF400003802400000474200700040404A136C31
:1010040023F080531364D4E73E4B00221A66FFF7A3
:10101400B9FC05463A4B1B6813F0007F06D0FFF776
:10102400B1FC401B6428F5D903205BE034484268D6
:1010340022F0746222F45F3222F47F7222F00302FF
:10104400E369216A0B43616A43EA8113E16A43EA73
:101054000163A16A4908013943EA01431343436028
:10106400284B01221A66FFF78DFC0446244B1B68AB
:1010740013F0007F06D1FFF785FC001B6428F5D927
:1010840003202FE000202DE000202BE0012B2BD0AB
:101094001B4B5B6803F48001E269914226D103F0A3
:1010A4003F02216A8A4223D1616A47F6C0721A401C
:1010B400B2EB811F1ED103F44031A26A5208013AF7
:1010C400B1EB024F18D103F07063E26AB3EB026F25
:1010D40014D1002006E001207047012002E0012025
:1010E40000E0002002B070BD0120FBE70120F9E719
:1010F4000120F7E70120F5E70120F3E70120F1E7FC
:10110400003802400000474208B5264B9B6803F0B4
:101114000C03042B41D0082B41D1224B5A6802F016
:101124003F025B6813F4800F12D01E4B5968C1F361
:1011340088111D480023A1FB0001FFF741F8194B5A
:101144005B68C3F3014301335B00B0FBF3F027E0BA
:10115400144B5868C0F388104FEA401CBCEB000CD9
:101164006EEB0E0E4FEA8E1343EA9C634FEA8C112A
:10117400B1EB0C0163EB0E03DB0043EA5173C900CE
:1011840011EB000C43F10003990200234FEA8C2079
:1011940041EA9C51FFF714F8D1E7034800E0034803
:1011A40008BD00BF0038024040787D010024F400EF
:1011B400002800F0A08070B50D460446524B1B6811
:1011C40003F00F038B4208D2CBB24F4A137013685B
:1011D40003F00F038B4240F09080236813F0020F5A
:1011E40017D013F0040F04D0484A936843F4E05333
:1011F4009360236813F0080F04D0444A936843F4BF
:1012040060439360414A936823F0F003A1680B4361
:101214009360236813F0010F31D06368012B20D051
:10122400022B25D0394A126812F0020F67D03749D1
:101234008A6822F0030213438B60FFF7A3FB064680
:10124400324B9B6803F00C036268B3EB820F16D039
:10125400FFF798FB801B41F288339842F0D90320B2
:1012640048E02A4A126812F4003FE0D1012041E02C
:10127400264A126812F0007FD9D101203AE0224BAD
:101284001B6803F00F03AB4207D9EAB21E4B1A7076
:101294001B6803F00F03AB4233D1236813F0040F30
:1012A40006D01A4A936823F4E053E1680B43936031
:1012B400236813F0080F07D0144A936823F460439B
:1012C400216943EAC1039360FFF71EFF0F4B9B683C
:1012D40003F0F003F02292FAA2F2B2FA82F2D340BF
:1012E4000B4AD35CD8400B4B18600B4B1868FFF7C4
:1012F400FDFA002070BD012070470120FAE70120AB
:10130400F8E70120F6E700BF003C02400038024045
:10131400E41C00080000002008000020014B1868AD
:10132400704700BF0000002008B5FFF7F7FF074B28
:101334009B6803F4E0534FF4E05292FAA2F2B2FA3B
:1013440082F2D340024AD35CD84008BD0038024040
:10135400DC1C000808B5FFF7E1FF074B9B6803F4AA
:1013640060434FF4604292FAA2F2B2FA82F2D3409E
:10137400024AD35CD84008BD00380240DC1C000897
:10138400026802F10C0353E8003F23F490730C321B
:1013940042E800310029F3D1026802F1140353E852
:1013A400003F23F00103143242E800310029F3D155
:1013B400036B012B05D0202380F842300023036304
:1013C4007047026802F10C0353E8003F23F0100356
:1013D4000C3242E800310029F3D1ECE790F84130B7
:1013E400DBB2212B01D0022070478368B3F5805F04
:1013F40017D0036A5A1C02621A7803685A60C38CB5
:101404009BB2013B9BB2C3844BB90268D36823F0FF
:101414008003D3600268D36843F04003D3600020A4
:1014240070470369002BE4D1036A1B880268C3F385
:1014340008035360036A02330362E0E710B504460D
:101444000268136923F44053C1680B431361836832
:1014540002691A4343691A43C3691A430168CB6892
:1014640023F4164323F00C031343CB60026853693F
:1014740023F4407381690B4353610368264A934202
:1014840006D002F58062934202D0FFF74DFF01E0DF
:10149400FFF760FFE369B3F5004F1DD000EB800256
:1014A40002EB820263689B00B2FBF3F21B48A0FBD1
:1014B40002314909642303FB11231B013233A0FBCE
:1014C40003035B0903F0F00202EB011203F00F03C4
:1014D400216813448B6010BD00EB800000EB80009A
:1014E40063685B00B0FBF3F00C4AA2FB00314909CE
:1014F400642303FB1103DB003233A2FB03235B09E8
:101504005A0002F4F87202EB011203F00703216897
:1015140013448B60DFE700BF001001401F85EB51CF
:101524002DE9F04383B005460E4617469946DDF88B
:1015340028802B681C6836EA04040CBF01240024AC
:10154400BC4228D1B8F1FF3FF3D0FFF71BFAA0EB60
:101554000900404523D8B8F1000F22D02B68DA687F
:1015640012F0040FE5D0802EE3D0402EE1D01A68AB
:1015740012F0080FDDD0002401941A6801925B6810
:101584000193019B2846FFF7FBFE08236B6485F853
:101594004040012000E0002003B0BDE8F0830320B8
:1015A400FAE70320F8E760B310B5044690F8413039
:1015B40013B3242384F841302268D36823F40053FE
:1015C400D3602046FFF73AFF2268136923F490435F
:1015D40013612268536923F02A0353612268D36894
:1015E40043F40053D36000206064202384F8413026
:1015F40084F84230606310BD80F84030FFF7F6F89D
:10160400D7E7012070472DE9F04182B01E4690F8DB
:101614004130DBB2202B56D104460D4690460029BA
:1016240055D00AB901204FE000234364212380F8F8
:101634004130FFF7A7F90746A4F82480A4F82680D0
:10164400A368B3F5805F02D04FF0000814E023696B
:101654002BB34FF000080FE0202384F8413003201F
:1016640032E038F8023B2268C3F308035360E28C8B
:1016740092B2013A92B2E284E38C9BB293B10096A7
:101684003B46002280212046FFF74AFF0028E3D191
:10169400002DE6D015F8012B23685A60E7E7A84629
:1016A4000025E9E700963B46002240212046FFF74B
:1016B40037FF18B9202384F8413005E0202384F84B
:1016C4004130032000E0022002B0BDE8F081012097
:1016D400FAE72DE9F04182B01E4690F84230DBB2C1
:1016E400202B59D104460D469046002958D00AB9FA
:1016F400012052E000234364222280F84220036345
:10170400FFF740F90746A4F82C80A4F82E80A368BC
:10171400B3F5805F02D04FF000081CE0236913B1D9
:101724004FF0000817E0A846002514E0202384F8B1
:101734004230032031E023685B68C3F3080328F8D0
:10174400023B03E023685B682B700135E28D92B2A3
:10175400013A92B2E285E38D9BB2C3B100963B4657
:10176400002220212046FFF7DBFE0028DED1002DD9
:10177400E1D0A368B3F5805FE4D013B92369002BEB
:10178400E0D023685B6803F07F032B70DDE7202340
:1017940084F84230002000E0022002B0BDE8F0816D
:1017A4000120FAE7704708B50168CA6822F04002D0
:1017B400CA60202280F84120FFF7F4FF002008BD12
:1017C400704708B5806B0023C385C384FFF7F8FF17
:1017D40008BD704790F84230DBB2222B69D1836890
:1017E400B3F5805F4FD0826AB3F5805F04D0002BDD
:1017F40056D10369002B53D103685B681370836A65
:1018040001338362C38D9BB2013B9BB2C385002B22
:1018140051D100B583B00268D36823F02003D360AC
:101824000268D36823F48073D3600268536923F099
:1018340001035361202380F8423000234363036B88
:10184400012B33D100230363026802F10C0353E834
:10185400003F23F010030C3242E800310029F3D199
:1018640003681A6812F0100F06D0002201921A6859
:1018740001925B680193019B818DFFF7AAFF002011
:1018840003B05DF804FB0269002AACD1826A0368E4
:101894005B68C3F308031380836A02338362B1E78E
:1018A40003685B6803F07F031370A8E7FEF7F2FE9A
:1018B400E5E70220704700207047000010B582B0B1
:1018C400044602681368D068516913F00F0F09D1F8
:1018D40013F0200F0CD010F0200F09D02046FFF792
:1018E40079FF16E011F0010115D110F4907F12D1A7
:1018F400216B012979D013F0800F03D010F0800FF1
:1019040040F0148113F0400F03D010F0400F40F06A
:10191400118102B010BD13F0010F06D010F4807FC6
:1019240003D0626C42F00102626413F0040F04D02D
:1019340019B1626C42F00202626413F0020F04D027
:1019440019B1626C42F00402626413F0080F07D00C
:1019540010F0200F00D119B1626C42F008026264E9
:10196400626C002AD5D013F0200F02D010F0200FA3
:1019740029D123685B6903F04003626C12F0080FFD
:1019840000D163B32046FFF7FBFC23685B6913F0C7
:10199400400F20D0226802F1140353E8003F23F0E3
:1019A4004003143242E800310029F3D1E36B73B1F0
:1019B400624A1A65E06BFFF7ADF80028A9D0E06B26
:1019C400036D9847A5E72046FFF704FFD1E72046BB
:1019D400FFF7F6FE9DE72046FFF7F2FE99E7204663
:1019E400FFF7EEFE0023636493E713F0100F82D039
:1019F40010F0100F3FF47FAF00230193136801939D
:101A040053680193019B536913F0400F52D0E26B6A
:101A140013685B689BB2002B3FF47BAFA18D9942A6
:101A24007FF677AFE385D369B3F5807F37D022683B
:101A340002F10C0353E8003F23F480730C3242E8B4
:101A440000310029F3D1226802F1140353E8003F66
:101A540023F00103143242E800310029F3D1226853
:101A640002F1140353E8003F23F04003143242E828
:101A740000310029F3D1202384F84230002323636A
:101A8400226802F10C0353E8003F23F010030C32E8
:101A940042E800310029F3D1E06BFEF7F1FF0223A5
:101AA4006363A18DE38D9BB2C91A89B22046FFF707
:101AB40090FE2EE7A18DE38D9BB2C91A89B2E38D06
:101AC4009BB2002B3FF425AF00293FF422AF2268DC
:101AD40002F10C0353E8003F23F490730C3242E804
:101AE40000300028F3D1226802F1140353E8003FC8
:101AF40023F00103143242E800300028F3D12023FC
:101B040084F8423000232363226802F10C0353E873
:101B1400003F23F010030C3242E800300028F3D1D8
:101B2400022363632046FFF754FEF2E62046FFF7E4
:101B340055FCEEE62046FFF736FEEAE6C717000836
:101B440081628285C28500234364222380F8423067
:101B5400036923B10268D36843F48073D3600268D5
:101B6400536943F0010353610268D36843F02003CF
:101B7400D3600020704708B590F84230DBB2202BC8
:101B840008D149B10AB9012008BD00230363FFF756
:101B9400D7FFF9E70220F7E70120F5E703460244FF
:101BA400934200D1704703F8011BF9E770B5002692
:101BB4000C4D0D4C641BA410A64209D100F080F812
:101BC40000260A4D0A4C641BA410A64205D170BD20
:101BD40055F8043B98470136EEE755F8043B98471F
:101BE4000136F2E7FC1C0008FC1C0008FC1C000881
:101BF400041D000870477047024B13B1024800F0FF
:101C040005B87047000000001D1C000800230146B1
:101C14001A46184600F014B838B5074D074C641B33
:101C2400A4101CB9BDE8384000F050B8013C55F888
:101C340024309847F5E700BF041D0008081D00087C
:101C44002DE9F047DFF86CA00646DAF80000984664
:101C54000F469146FFF7CEFF174B1C680CB9174C83
:101C64001C606568DAF800001F2D05DDFFF7C3FF6F
:101C74004FF0FF30BDE8F0879EB1012204EB8501EF
:101C8400C1F88890D4F88831AA401343C4F8883145
:101C9400022EC1F8088102BFD4F88C311343C4F872
:101CA4008C316B1C0235636044F82570FFF7A3FF89
:101CB4000020DFE70C0000208004002084040020C2
:101CC400F8B500BFF8BC08BC9E467047F8B500BF25
:081CD400F8BC08BC9E467047F5
:101CDC0000000000010203040000000000000000EE
:081CEC000102030406070809C8
:081CF40000E5FF7F0100000084
:081CFC00FD1B0008A90100080E
:041D0400850100084D
:101D08000024F40001000000100000007C04002002
:040000050800089D4A
:00000001FF
